:060000000A128A11252FEF
:100E4A00A001A101A201A301031383163F3085006B
:100E5A000030860000308800003087008D309F0007
:100E6A00A030920083120C3097000C309D000130A4
:100E7A009200C1309F009F111F151F19422F831620
:100E8A001E088312A0000310A00C0310A00C1E1849
:100E9A0020179E18A0179F151F151F19522F83166A
:100EAA001E088312A1000310A10C0310A10C1E1826
:100EBA0021179E18A1178030A0028030A102A01B22
:100ECA002214A01BA0092218A00AA11BA214A11B6C
:100EDA00A109A218A10A0310A10C0310A10C221C3B
:100EEA00782F22187C2FA21C802FA2188A2FA21CCE
:100EFA008E2FA218932F21082002A300A31B2215CC
:100F0A002219A3092219A30A9D2F21082007A30049
:100F1A009D2F21082007A30022159D2F20082102BA
:100F2A00A300A31B22152219A3092219A30A9D2F84
:100F3A00221CA12F2218A52FA21CA92FA218AD2F5F
:100F4A00A21CB72FA218C12F21082007A400C62F60
:100F5A0021082002A400A41BA215A219A409A219FF
:100F6A00A40AC62F20082102A400A41BA215A219B4
:100F7A00A409A219A40AC62F20082107A400A215B1
:100F8A00C62F24088600221DCC2F2219CF2F8715A1
:100F9A000712D22F87110716D22FA21DD62FA219F8
:100FAA00D92F87160713DC2F87120717DC2F230880
:100FBA00950015181716951897160310950C031017
:100FCA00950C24089B001B181D169B189D160310D0
:100FDA009B0C03109B0C8C10910112158C1CF32F87
:100FEA008C18F02F402F00000000000000000000C5
:060FFA00000000000000F1
:02400E00393F38
:00000001FF
